S00C0000546573742E7372656378
S113000078240020210100001D0100001D010000D2
S113001000000000000000000000000000000000DC
S11300200000000000000000000000001D010000AE
S113003000000000000000001D0100001D01000080
S11300401D0100001D0100001D0100001D01000034
S11300501D0100001D0100001D0100001D01000024
S11300601D0100001D0100001D0100001D01000014
S11300701D01000000000000000000001D01000040
S1130080000000001D0100001D0100001D01000012
S11300901D0100001D0100001D0100001D010000E4
S11300A01D0100001D0100001D0100001D010000D4
S11300B01D0100001D0100001D01000010B5064CCB
S11300C02378002B07D1054B002B02D0044800E015
S11300D000BF0123237010BD340400200000000081
S11300E0B4030000084B10B5002B03D0074908489F
S11300F000E000BF07480368002B00D110BD064B89
S1130100002BFBD09847F9E70000000038040020DA
S1130110B4030000B403000000000000FEE7000088
S113012010B5104A104B9A4209D00F4B0D4A03E008
S113013011681960043304320C498B42F8D30C4B18
S113014002E000221A6004330A4A9342F9D30A4AAD
S1130150FF210A4B8B439360094B9847094B9847FF
S1130160FEE7C046B4030000000000203404002071
S1130170340400207404002000ED00E000000000BE
S1130180ED01000099010000014A024B1A6070471A
S113019000093D000000002010B5124B9847822250
S11301A0D205916880235B020B4393605221535C18
S11301B040200343DBB253540BE0C04601330A4AE8
S11301C09342FAD98222D205516980235B020B4300
S11301D053618222D205916980235B020B439361B0
S11301E00023ECE7890100000F27000070B50D4ED5
S11301F00D4D0024AD1BAD1005D0A300F358013400
S11302009847A542F9D100F0C3F8084E084D0024E0
S1130210AD1BAD1005D0A300F35801349847A54297
S1130220F9D170BD9C0300009C0300009C030000F6
S1130230A4030000034B10B5002B02D0024800F0C9
S113024005F810BD000000005D02000010B50100BB
S113025000230022002000F01FF810BD70B5094BE8
S1130260094CE41AA41009D0084AA518AD00ED18E9
S11302702B68013C9847043D002CF9D100F092F81A
S113028070BDC046B0030000B4030000FFFFFF3F91
S11302907047C0467047C046F0B54E464546DE46F8
S11302A05746E0B5364D83B00600286898460F00DF
S11302B09146FFF7EDFF334B1C68A4235B00E05825
S11302C0002852D043681F2B13DC5A1C0192002EC5
S11302D028D1019A02339B0042601F502868FFF71F
S11302E0D9FF002003B03CBC90469946A246AB46D9
S11302F0F0BD254B002B3DD0C820400000E000BFDE
S1130300002837D0A42200235200A1584360016082
S1130310A0504032835004328350013301930023B0
S1130320002ED6D09A00924682444A4688215446EA
S11303306250C4225200914681444A46873999400A
S113034012688B460A4394464A46614611608422E9
S113035041465200A150022EBBD102005C468D32B0
S1130360FF3211680C431460B3E720004D30FF30B6
S1130370E050A7E72868FFF78DFF01204042B1E76E
S1130380300400208C03000000000000080000205E
S1130390F8B5C046F8BC08BC9E467047350200005C
S11303A0E5000000F8B5C046F8BC08BC9E4670479E
S10703B0BD00000088
S11303B400093D000000000000000000F4020020D9
S11303C45C030020C40300200000000000000000BF
S11303D40000000000000000000000000000000015
S11303E40000000000000000000000000000000005
S11303F400000000000000000000000000000000F5
S113040400000000000000000000000000000000E4
S113041400000000000000000000000000000000D4
S113042400000000000000000000000000000000C4
S113043400000000000000000000000000000000B4
S113044400000000000000000000000000000000A4
S11304540000000000000000000000000000000094
S113046401000000000000000E33CDAB34126DE631
S1130474ECDE05000B00000000000000000000009A
S11304840000000000000000000000000000000064
S11304940000000000000000000000000000000054
S11304A40000000000000000000000000000000044
S11304B40000000000000000000000000000000034
S10707E45004002099
S9030000FC
